S012000068656C6C6F5F776F726C642E686578DF
S214000000B701400073A0017C896173A001309301A1
S214000010002073A00130A16173A0017CB78163004A
S21400002073A0017C9B00F001E2107390003A9B00E5
S2140000301000A210FD107390703B73E0307F81407B
S214000040014181410142814201438143014481448F
S214000050014581450146814601478147014881485F
S21400006001498149014A814A014B814B014C814C2F
S214000070014D814D014E814E014F814FF32140F1DC
S214000080054217E10E001301E1F797010000938186
S214000090A10873905130A14173A00130B701070049
S2140000A0CD2173A0217C85619B81F11F73A0117CFB
S2140000B085619B81F11F73A0117CB7E106009B81CF
S2140000C0C13073A0517C9B017000F601A50173A09E
S2140000D0317CEF00E06901459300A0051301B006EE
S2140000E09301C0070B008001B74144009B81313368
S2140000F0B201938121220E8201459300C0021301B2
S214000100B0030B008001B70147009B819146BE01FA
S2140001109381017205A8010085A00100010001007D
S214000120A1A8010091A8010081A80100010001001A
S214000130A1A0010091A0010081A001000100010022
S21400014025A85DBF232ED1FE232CE1FE232AF1FE37
S214000150732720349377F77F6D93418B3E970E0776
S214000160970700009387072ABA979843833681FF3C
S214000170833781FE71170287233CD1FE2338E1FEC8
S2140001802334F1FE732720349377F77F6D93418BEA
S2140001903E970E07970700009387C726BA9798439F
S2140001A08326C1FF832741FF7117028713000000D3
S2140001B013000000130000001300000013000000EE
S2140001C013000000130000001300000013000000DE
S2140001D013000000130000001300000013000000CE
S2140001E013000000130000001300000013000000BE
S214000660B707040083B7870088675DA40000000012
S214000670011126E4AE8422E806EC4AE02A84EF1054
S214000680204C85C0A2943709040001001300000026
S214000690833789000B4514988C6BEF106049E399FB
S2140006A084FEEF10E04AE2604264A26402690545F7
S2140006B00561828013000000130000001300000094
S2140006C0011181472E8693870767AA850A8506EC5F
S2140006D002E03EE4EF00C029E2600561828000008F
S2140006E05D711303010232F01A8606EC36F40B57DE
S2140006F0F1FEC2E0C6E41AE4EF008025E260616124
S21400070082800000000000000000000000000000E2
S2140007105D711303810236F49A8606EC0B57F1FEE0
S214000720C2E0C6E41AE4EF00B030E26061618280A5
S21400073000000000000000000000000000000000B4
S2140007405D711303010232F01A8606EC36F40B577D
S214000750F1FEC2E0C6E41AE4EF108033E2606161A5
S2140007608280000000000000000000000000000082
S214000770156541111305852406E422E0EF10403785
S214000780156513058525EF10A036156585451305F7
S2140007908527EF00F06C1565894513058528EF0061
S2140007A0306C1565814513058529EF00706B05448F
S2140007B089458D47A2822E8333846200012463021A
S2140007C0F40215651305852BEF0090691565A28563
S2140007D01305852CEF00D068A26002640145410134
S2140007E0828015651305852AEF009067C5B700005F
S2140007F000000000000000000000000000000000F4
S214000800411193074002FD352948B3A7D70006E4F7
S21400081022E0B6888B18F8420B50B500B307B50037
S2140008200B98D84205E2130700039385F7FFA38FC2
S214000830E7FE05440946EF20A02BA260228502644D
S21400084041018280637EF506C286130370023DE78F
S214000850BE851B870700930E9003054E39A801003E
S2140008609C89BB07BE403358D602BB08B740B99F29
S214000870630BB5026369D6024286FD15B377D602CE
S2140008809B87070393F7F70F3B886700E3FAFEFCA6
S21400089023800501BB07BE403358D602BB08B740CD
S2140008A0B99FE319B5FC0BB6077C4684EF204024BD
S2140008B0A260228502644101828001001D4349BF77
S2140008C0BE850144054685BF00000000000000000C
S2140008D06F1000260000000000000000000000006E
S2140008E0D30705E21317302B1305F07F3E975215FA
S2140008F0133717009397374B898F05450B15F7422B
S21400090082800000000000000000000000000000E0
S2140009106F10003F00000000000000000000000014
S2140009209307F07F530705E2D21705456389E70072
S2140009301315402B3A95133515000B2505008280BC
S21400094000000000000000000000000000000000A2
S214000950B2862E86B705008093C5F5FF6F00500D52
S2140009600000000000000000000000000000000082
S2140009704D71A2E226FE56EE5EE662E2EEF586E6F1
S2140009804AFA4EF652F25AEAE6FDEAF9A2AD2A8C87
S214000990AE8DB284EF10C02B1C41956B956A3EF469
S2140009A095679387072F3EE493870B4F938A0A4EEB
S2140009B001443EE083C60D00130A500213000000F7
S2140009C0A5CE638E4603814921A00100630A470134
S2140009D085290BC73D918BB5097C3B89B9097DF705
S2140009E0E38009FE83378C0003360C006E853B04DB
S2140009F03401829783460900CA8DE39346FD138728
S214000A001D000149014A814B0143014B02EC02E8FB
S214000A10014D930C00029306A007930FA002014F0E
S214000A20BA8D8BC91D98A3033105E3E536F9A26795
S214000A300BC6374502867D54B66022851664F2746E
S214000A405279B279127AF26A526BB26B126CEE7C01
S214000A504E7DAE7D6E24716182801AF0E31D03FC2C
S214000A603A852946AC00EF20B05F03467104C267A2
S214000A70E685930E00038B95FE403306D641266727
S214000A8002731B0A05008B9CC5409306A007930FB4
S214000A90A002014F71B79B871B0093F7F70F8527BE
S214000AA08BAB071C6E87ADBF13051105AAE4138F29
S214000AB084006351700305476389EB529060635965
S214000AC0066E3306C040FA840147A9468149AA8FBC
S214000AD0894E81A19040854E635506003306C0407E
S214000AE0894EAA8FA9460147814963DA0B008B35E8
S214000AF0063C93871B001376F60F0B96F54093057E
S214000B00B0077E857AFC1AF876F0EF106007627FF1
S214000B104273827EFA84A66B6305030085476305ED
S214000B20F512BB0935018946B36749016380DE3C8F
S214000B3063810E2E6267B3666701638C062C13868C
S214000B40FBFF930600029305B0028B966543B2E462
S214000B50A38FDBFE8529A66B638F073663020D54D1
S214000B60EA856A8BEA864267B387BB00BEE4033633
S214000B700C0083378C00BB89D9403B0ADA406316E9
S214000B80073A630D03468B36097C8BBC097CB3F6AB
S214000B90960BBD453B0DDA40EA8663D4A5613D4A17
S214000BA019A00B46FCF8C145568536C8413D8297CC
S214000BB0C246E348AAFF1B8A06FF0B46FCF8137AD8
S214000BC00AFF13FDF600412A6359A001EA855685FF
S214000BD082970B46FCF83B0AAA013B0444016309D2
S214000BE00B00DA855E8582970B46FCF83B046401B1
S214000BF03B0939414A8B3D47635E675D3D4A19A014
S214000C000B46FCF80265413BC1458297E34A6AFF02
S214000C101B0709FF0B46FCF8419B137BF9001B09D9
S214000C200701635B60011567DA851305074F829736
S214000C300B46FCF83B092B013B0424012665E685A0
S214000C403B0434018297BDB38BC63B9193070003E8
S214000C50E399F6EC630B0944E3070DEC014D81497B
S214000C60D9B5130511050B3A0A7C8547AAE48020FE
S214000C70337AFA0AA104012A6305032E63010B4C9A
S214000C8053058422CA8652869305F007EF00406318
S214000C909B0705005AF0A66B9305E0023EF85E85BA
S214000CA0EF20001FC27763130548630F0D009306FD
S214000CB0E0028BD6FB10266785270B50F7109307AC
S214000CC07006A66B6387F940E267B3E76701639136
S214000CD0074A5E85EF20407182779B090500638492
S214000CE0074C854685450143054BB5BD8BC78458E3
S214000CF0A303F10483378C0003360C0085451305E7
S214000D007104829705247DB10BCA84586E8709BB8F
S214000D106E87130DF00F29B385476E873EEC09B337
S214000D209B87FBFF8BAB071C6E87DDB993F7FB0F2A
S214000D30BDB36E87054BEDB150836314F6210BC926
S214000D408458090705433369E90BD9B92275EF20A2
S214000D502067AA89AAE4EF20206983378C0003362F
S214000D600C002A898B35057C4E8582973B0424012E
S214000D7091B163010D1C13070003A308E104930F50
S214000D802105A146054D01478549130511052DA8E6
S214000D9093078007A303F10493098007854B014757
S214000DA09306000323093105A308D104930F3105E8
S214000DB0094D8949130511058B36097C0B3A0A7CC7
S214000DC0337ADA0AC146012AAAE4635A7013054642
S214000DD0138F8400639CCB129060814E0DB38BCB37
S214000DE08478DEE463830B1C5E851AECEF20C05F1C
S214000DF062639B0905006300032A0B39097C8BB9E3
S214000E00097CB359390BD287812901490143930CD8
S214000E100002F1C3E3160DD4C2676382073ABB0C27
S214000E203941668DBD4763D1A7313D4B83378C0072
S214000E3003360C000265413DC1458297E348ABFF8F
S214000E401B8B0CFF137B0BFF13FDFC00412B635D1C
S214000E50A00183378C0003360C001567EA8513055E
S214000E60074F82973B0BAB0183378C0003360C0091
S214000E7026658BBC097CE6850B39097C8297B3FC1A
S214000E802C0B3B0A9A413B0B6401BD475284BB09BD
S214000E903B0163D987283D4983378C0003360C0015
S214000EA04134C14556858297E34889FE1B090AFFEF
S214000EB0137909FF1374FA004129635B80008337B6
S214000EC08C0003360C00A285568582973B092401C8
S214000ED03B842901C5B483378C0003360C008BB5E0
S214000EE0097C5E8582973B043401E9B49386FBFF58
S214000EF0B6E49306D002A38FDBFE8529A9B9268F18
S214000F000B468F58814EE3940BBED5BE9060814E43
S214000F10FA849305B0077E857AFC1AF876F0EFF02F
S214000F203F8E827E0B43E1FFFDB65E8582973B04D3
S214000F308B00F5B5130511050147AA8FA146814917
S214000F4061B52946AC006E85EF208072014F33698B
S214000F50E50B2667012905439306A007930FA00219
S214000F60C1B463090B14530584229946528693052F
S214000F70F007EF00E03493077006A66B6381F91E56
S214000F80D30700F2D38787A25AF01949E38307D420
S214000F909307B0029386FBFFB6E4A38FFBFEA66B17
S214000FA00DBB85476E873EE8A5BC15679307872E61
S214000FB0BEE49949930B872E3DBD0547E3120DDE2F
S214000FC013051105AA8F8149C5BB13051105AA8F04
S214000FD0894601478149CDBB0147CDB713051105A9
S214000FE0AA8FA94601478149C5B39060E34806AE7B
S214000FF0AA8FA94601478149854E11B6930600037C
S2140010006399DC005E8582970B46FCF83B048B00F8
S214001010014B3B0A3A411B870C00D286BD453AE895
S21400102063D8D508130907FD133919001209569914
S214001030368DBD4C19A00B46FCF8413DC1454A858E
S2140010408297E3CAACFF1B090AFF0B46FCF813792C
S21400105009FF9376FA0041296351D0024267B685AC
S21400106036E8130507FD13351500120556958297C9
S214001070C2660B46FCF83B09D9003B0424018BBC36
S214001080097CE30D0BBADA855E8582970B46FCF881
S2140010903B04640165B6D2870149930C000295BBF8
S2140010A0FA8485468545054B7DBC8149014DA5BC26
S2140010B001495DB7D30700F2D317F4A2994653054A
S2140010C0842252869305F0073EF01949EF00401F30
S2140010D0FDB69305E0025E85EF10905BAA89E305F6
S2140010E005BE930550064E85EF10905A83C709003B
S2140010F0AA8581C78BC71988F5FF8B99B5429306D9
S21400110000034E878BC7F989E38DD7FE938727FDAB
S2140011108B19F7422380090081C54E85EF10D068F1
S214001120A66B5DB6014951BB014B15B3631F09049D
S214001130930715000B95A7432300050049B6D30770
S21400114000F2D317F4A2CA8653058422528693056A
S214001150F0073EF0EF00C0169B0705002DBE930576
S214001160E0025E85EF10D0525AF0AA89194935F987
S214001170D30700F2D38787A2E38D07B49307000254
S2140011809306B0028B97664331B53C810905CDD7EF
S2140011907D39E30309FA8B471588FDFB230005001C
S2140011A039BE014A15B4C267E39B07C619A80100F9
S2140011B0FA84AA8F854EA9460147814999BB6316D2
S2140011C003000B46FCF8014BA9B50B46FCF8014B97
S2140011D05DBA01000149B1B4000000000000000043
S2140011E0011122E832841C68106626E44AE006EC08
S2140011F02E89B384C7406384C7022A870860B3D4A5
S214001200B40A01CD3295BA852686EF10B0098B4711
S214001210E4F8A6970BD0E7001064B29404E4E2600A
S2140012204264A2641B050900026905618280010010
S2140012305D71A2E086E42E8426FC4AF82AEC02F0D1
S214001240B2851DCC3C083EE48567AA841309F4FFEA
S2140012509387071E368628004AF43EE8EFF04FF1E3
S21400126091C863490500FD57630EF402636C85025E
S2140012700BD02401A6600664E27442796161828024
S2140012803C083EE4856728009387071E368602F4EE
S2140012903EE8EFF0EFEDA6600664E2744279616125
S2140012A0828001000BD0A400A6600664E274427936
S2140012B06161828000000000000000000000000065
S2140012C05D71A2E04AF852F056EC5AE886E426FC35
S2140012D04EF45EE4530B05E22A8A2E84B28A3689DF
S2140012E0EFF00FE46318051653050BF2EFF04FDF2F
S2140012F0AA8963130528D30700F253070BF2D327F6
S214001300F7A25A876390071AD317F7A2D284D30797
S2140013100BF2639F071E630909329567530716F29F
S21400132087B687508147010085275377D712E31D7C
S214001330F9FED3F7E702530718F2D397E7A291C74F
S214001340930700038BD714187D348B374BFB93879A
S21400135017C053F727D2956787B607515377D7122A
S214001360D31B27C2850B6353702115669B870B0022
S214001370294707350650637EF700156707378751FC
S2140013802947010013000000D9375375E512E36DB5
S214001390F7FE0547637BF70007370650130000008B
S2140013A0FD375375E512E39DE7FE956787B607524E
S2140013B08546D397A6A2A9C3073606501300000099
S2140013C053F7A71AD31707C213F7F70F81271B0681
S2140013D0070393F7F70F91C219CB0BD614186309BE
S2140013E0041E538707D27D34CB77A77A8146537580
S2140013F0C51AD397A6A2E9F7638E441563020912AD
S21400140051C49307E0029C887D3413871400636FF1
S2140014102407156687360650BB04E908130000004B
S21400142053F7A71AD31707C293F6F70F538706D2B8
S2140014309B8707038B571718CB77A77A5375D51A50
S214001440E390E4FEB3874441238004009B890700B1
S21400145035A801009B090400635B801E9307900675
S2140014602300FA0085476383F9029307E006A3008A
S214001470FA008947638CF900930760062301FA0097
S2140014808D476383F90EA3010A009149A66006649E
S214001490E2744279027AE26A426BA26B4E85A279C6
S2140014A061618280631E090EA14685478B9687423E
S2140014B0014563430718B307AA00BB05404113065E
S2140014C000030100130000000BD617183B87F50039
S2140014D0E36CD7FE130715009B87F6FF899FB3B60C
S2140014E0E60001478B17D7420525BB89A700BB87B7
S2140014F0490903470A00130707FD3337E0000507CD
S2140015009306E0028B56EA002380070041B70100ED
S2140015109307D002D317E7228BD714187D34E5BB88
S214001520B38744411B871700E37057F325D02687FF
S2140015309307E0028B571718B30747411B891A0019
S2140015403B09F9407D34E36324F5BA84E31309ECE0
S214001550E5BD010005DC930700038BD714187D3426
S214001560E31009EA75BF01008D490DB7956707B509
S2140015708750E39544E9F9BF9B0904006359800C42
S2140015809307E0062300FA000547E381E9F0130716
S2140015901006A300EA000947E392E9EEC5BD010084
S2140015A09B0629006368D408D287A1D60145E35478
S2140015B00BF09307D0022300FA009B0639008547FC
S2140015C063E1D70893071A008549094715BF01004C
S2140015D0D3070BF253F5A71ACA865686814552855D
S2140015E0EFF01FCEE30405EAB387A4001307500606
S2140015F09346F5FF0BD7A400812693841700114766
S21400160005469307803EA9457D3763D3FB0001EE70
S21400161099C633C6FB021B0606030BD61418B3EB9B
S214001620FB02FD360146BBC7B70279FFE39C06E026
S214001630B1BD0100A146ADBD9307D0022300FA005C
S214001640852605458DBD0100530716F2DDB181499B
S21400165035BD000000000000000000000000000093
S2140016601D71130381022EF49A8506EC0B56D1FEEB
S214001670BAE0BEE4C2E8C6EC1AE4EFF06F84E260BB
S21400168025618280000000000000000000000000CD
S2140016904111F32710C03EC6324541018280010049
S2140016A0B71700053737334496071307272223A4B6
S2140016B0E7F4828000000000000000000000000048
S2140016C0B7E7F5059B870710BBD7B70218650CC9A7
S2140016D08346C70093E606F893F6F60F2306D70070
S2140016E08BB6472C148B8BB7C74C2302F700834767
S2140016F0C70093F7F7072306F70082801300000061
S2140017004CC985476384F5048947638DF50099C104
S2140017108280010018658347C70093F7770F23067A
S214001720F700828018658347C70093F7F70F93E7A3
S21400173087002306F70018658347C70093F7F70F5F
S21400174093E707012306F7008280010018658347A8
S214001750C70093F7F70F93E787002306F70018658F
S2140017608347C70093F7F70E2306F7008280010031
S2140017704CCD8947638EF50463E4B702B1C11865A2
S2140017808347C70093F7D70F2306F70018658347EC
S214001790C70093F7F70F93E717002306F70082803A
S2140017A08D47639DF50018658347C70093F7F70FCD
S2140017B093E737002306F70082800100828001004D
S2140017C018658347C70093F7C70F2306F700828084
S2140017D018658347C70093F7E70F2306F7001865D9
S2140017E08347C70093F7F70F93E727002306F70012
S2140017F082800100130000001300000013000000A8
S2140018000CCD8DC18547639DF50018658347C700DD
S21400181093F7F70F93E747002306F700828001004F
S2140018208280010018658347C70093F7B70F230629
S214001830F700828013000000130000001300000071
S2140018400CD182801300000013000000130000007B
S2140018504CD182801300000013000000130000002B
S21400186081E9B7570110232005001CE50145828059
S21400187005458280130000001300000013000000DE
S214001880144141677D17AA87638CE60E904137E7BF
S214001890F5051B0707103B57C702146510C9054519
S2140018A003C6C600136606F81376F60F2386C60030
S2140018B00B36472C908A0B37C74C2382E60003C7AB
S2140018C0C6001377F7072386E6009845D8CB630B48
S2140018D0A71289466304D70C630E0710D8458946BD
S2140018E0D8CF6304D70E63EFE60249CF946703C7E9
S2140018F0C6001377D70F2386E600946703C7C60093
S2140019001377F70F136717002386E600D84198CFA2
S21400191031CB85466308D7028BC6E5E4014594D3F0
S214001920D8D382808D46E313D7FE946703C7C600DC
S2140019301377F70F136737002386E600D84198CF52
S21400194069FB0DA09467014503C7C6001377F70F20
S214001950136747002386E6008BC6E5E494D3D8D306
S214001960828001009467014503C7C6001377B70F4E
S2140019702386E6008BC6E5E494D3D8D382800100A4
S21400198005458280946703C7C6001377C70F238672
S214001990E600D84198CF35FFF1B70100946703C73A
S2140019A0C6001377F70F136787002386E600946751
S2140019B003C7C6001377F70F136707012386E600F1
S2140019C0D8458946D8CFE310D7F2946703C7C60038
S2140019D01377E70F2386E600946703C7C6001377DE
S2140019E0F70F136727002386E600D84198CF15F334
S2140019F095BF0100946703C7C6001377770F238649
S214001A00E600E9BD946703C7C6001377F70F1367B0
S214001A1087002386E600946703C7C6001377F70E91
S214001A202386E60065BD13000000130000000100D9
S214001A30C167FD17233005021CC1014582800100E5
S214001A405C5199CB186501008347470193F707025D
S214001A50E5DF0C8B0145828005458280130000007F
S214001A600545828000000000000000000000000025
S214001A704111B2862E86854506E4EF007010A260FE
S214001A8001254101828013000000130000000100C0
S214001A900111AA873EE089670A85938707A706ECA7
S214001AA03EE4EFE0FFECE2600561828000000000AB
S214001AB00000000000000000000000000000000021
S214001AC0B707001023A007001307F003B70701109D
S214001AD098CB82800000000000000000000000009C
S214001AE000000000000000000000000000000000F1
S214001AF0411122E006E42A84088109C91300000087
S214001B00FD55EF00E0020B4514887DF9FD5529458B
S214001B10EF000002A26002640145410182800000DD
S214001B2000000000000000000000000000000000B0
S214001B302A87B707000223A8E7FE8280130000006A
S214001B408280010013000000130000001300000054
S214001B50828000000000000000000000000000007E
S214001B60B707040083B78700411106E48C6BEFE0EB
S214001B703FD6A260014541018280000000000000BF
S214001B804111FD359B87F6FF1308300206E422E07C
S214001B90B337F8000B50B51029488B16F842BB87B0
S214001BA0A5080DE2130700039385F7FFA38FE7FE52
S214001BB005440946EF00D073A26022850264410105
S214001BC082800100637EF5061303700225EBBE8556
S214001BD08BB6067C1B870700930E9003054E31A834
S214001BE09C89BB07BE403358D602BB08B740B99F96
S214001BF0630BB5026369D6024286FD15B377D6023B
S214001C009B87070393F7F70F3B886700E3FAFEFC12
S214001C1023800501BB07BE403358D602BB08B74039
S214001C20B99FE319B5FC0BB6077C4684EF00506CF1
S214001C30A260228502644101828001001D4341BFEB
S214001C40BE8501440546BDB7000000000000000048
S214001C5017E503000335853B828000000000000086
S214001C60000000000000000000000000000000006F
S214001C70011122E826E406ECAA842E8419C13C4908
S214001C80B1C78327040B858B91E78357040193F72D
S214001C900720ADC31C441B87F7FF18C4634C07021C
S214001CA01C601387170018E083C407008327040B03
S214001CB0858B91E78357040193F7072095C3E2606D
S214001CC042642685A264056182800100EF00401A06
S214001CD04DBF01002685A285EF00907CAA84F9B747
S214001CE04870EF00E074E26042642685A2640561F5
S214001CF0828001004870EF00A06F69BF13000000EB
S214001D00011126E497E4030083B4443022E806EC8D
S214001D102A8499C0BC48A9C78327040B858B91E702
S214001D208357040193F70720A5C31C441B87F7FFBE
S214001D3018C4634B07021C601387170018E083C49F
S214001D4007008327040B858B91E78357040193F7DD
S214001D5007208DC3E26042642685A2640561828006
S214001D602685EF00E0104DBF2685A285EF00507354
S214001D70AA84C1BF4870EF00A06BE260426426856B
S214001D80A2640561828001004870EF00606671BF42
S214001D9097250000938505BA6F0080471300000062
S214001DA08327050B858B91E78357050193F707205B
S214001DB081C70145828001004871411106E4EF00A9
S214001DC02063A260014541018280130000000100EB
S214001DD08327050B858B91E78357050193F707202B
S214001DE081C70145828001004871411106E4EF0079
S214001DF02064A260014541018280130000000100BA
S214001E00011126E41306800B9B84F5FFB384C402FD
S214001E104AE02E8922E89385040D06ECEF00406226
S214001E202A8401CD6105233004002324240108E818
S214001E301386840B8145EF00B059E2602285426428
S214001E40A26402690561828013000000130000008E
S214001E50173500000335856D97250000938585AD01
S214001E606F00003B1300000013000000130000008A
S214001E70397126F4AA8417F503001305A51506FC88
S214001E8022F84AF04EEC52E856E4EF006056BC48A2
S214001E90639807108064170700001307A7EFB8ECD5
S214001EA0938784530D4723A4E45223B8F45223B0F7
S214001EB0045291471CC8214681452328040A233032
S214001EC0040023340400233C0400232004022324BB
S214001ED004021305840AEF00B04F971A0000938A95
S214001EE06AEA171A0000130AEAEE971900009389A7
S214001EF069F4171900001309E9F81305040A0B54CE
S214001F0054FF233044052334340523382405EF00DA
S214001F10204A8068C167A5071CC82146814523283A
S214001F20040A2330040023340400233C0400232046
S214001F300402232404021305840AEF0070491305E3
S214001F40040A0B5454FF2330440523343405233845
S214001F502405EF00E045806CB7070200C9071CC8DF
S214001F60214681452328040A233004002334040034
S214001F70233C040023200402232404021305840ABD
S214001F80EF0010451305040A0B5454FF2330440594
S214001F902334340523382405EF0080418547BCC828
S214001FA04274E270A2740279E269426AA26A17F584
S214001FB003001305250221616F008047130000000F
S214001FC079714AE82A8917F503001305250026ECDF
S214001FD006F422F04EE452E0EF0080419734000011
S214001FE083B4C454BC48CDC3938404529309800B75
S214001FF0114A9C4480686354F002031704010DC71D
S214002000FD378BB7077C850722870B97372121A0E2
S2140020108317040191CB1304840BE31BE4FE80605A
S21400202025C8A284F9B70100C17785071CC8130527
S214002030040A2328040AEF00A03717F50300130547
S214002040E5F8EF00E03E2146233004002334040088
S214002050233C0400232004022324040281451305A4
S214002060840AEF00F036233C040423200406233CB5
S214002070040623200408A27022850274E2644269E2
S214002080A269026A456182802685EFF07FDEA9BFDD
S2140020909305802F4A85EF00A03A2A8419CD610562
S2140020A0233004002324440108E81306002E81454B
S2140020B0EF00103280E0A2842DBF23B0040017F595
S2140020C003001305A5F0EF00A036B1472320F90062
S2140020D05DB70100130000001300000013000000AD
S2140020E017F50300130585EE21A613000000010076
S2140020F017F50300130585ED6F008033130000000D
S21400210017F50300130505EDE5A413000000010014
S21400211017F50300130505EC21AE130000000100BF
S214002120411117F50300130565EA06E4EF00402C9D
S214002130A26017E50300033565ED9705000093855B
S21400214065C6410135A81300000013000000010019
S21400215017E50300033585EB4111970500009385CD
S21400216065C706E4EF00C001A26017F5030013057B
S214002170E5E5410175AC000000000000000000002D
S2140021805D7126FC4EF452F056EC5AE85EE486E4A6
S214002190A2E04AF82E8B130A05528144930B800B5B
S2140021A08549FD5A1300000083278A0003340A017C
S2140021B0635CF002FD378BB7077C850722890B9995
S2140021C077210100130000008357040163FAF90029
S2140021D083172401228563855701029BC98C8124BD
S2140021E01304840BE31289FE033A0A00E31E0AFA7C
S2140021F0A66006644279A279027AE26A426BA26B12
S2140022002685E274616182801300000013000000DE
S2140022105D7126FC4EF452F056EC5AE85EE462E03D
S21400222086E4A2E04AF82A8C2E8B130A05528144D3
S214002230930B800B8549FD5A83278A0003340A01D5
S214002240635DF002FD378BB7077C850722890B9903
S21400225077210100130000008357040163FBF90097
S21400226083172401A285628563855701029BC98C6A
S21400227081241304840BE31189FE033A0A00E31D4C
S2140022800AFAA66006644279A279027AE26A426B8A
S214002290A26B026C2685E2746161828000000000F9
S2140022A00000000000000000000000000000000029
S2140022B01D71A6E4B384C6023C003EEC8547A2E846
S2140022C0CAE04EFC52F886EC2EE426E826F43ED011
S2140022D0328A3689AA893A8419C13C49B5CB032784
S2140022E0040B83160401058B8BB7063C01E713F736
S2140022F007202DCF0967F98F99EB8327040BD98E1A
S21400230079777D17F98F2318D4002328F40A30082C
S214002310A2854E85EF10D0568327040B858B0DCDF6
S21400232091CFA276958C33D94403E6604664A664C2
S214002330E279427A4A8506692561828083570401DC
S21400234093F70720F9FF4870EF00800ED9BF010011
S214002350EFF01FB269B70100E9FB8357040193F75A
S2140023600720E1F74870EF00A00CC1B74870EF00F7
S2140023702008831604018BB7063CADBF130000008F
S214002380AA8717E50300033565C83687B2862E860A
S214002390BE8539BF000000000000000000000000FD
S2140023A082800100130000001300000013000000EC
S2140023B082800100130000001300000013000000DC
S2140023C082800100130000001300000013000000CC
S2140023D082800100130000001300000013000000BC
S2140023E082800100130000001300000013000000AC
S2140023F0828001001300000013000000130000009C
S2140024000545828013000000130000001300000042
S2140024100545828013000000130000001300000032
S214002420828001001300000013000000130000006B
S2140024308280000000000000000000000000000095
S2140024401D71A6E44EFC86ECA2E8CAE052F856F4EB
S2140024505AF05EEC62E866E4938475019307E00246
S214002460AA8963E797049307000263EDB71EEF009F
S21400247030019304000293070005114617EA030093
S214002480130A4A30D2978067138707FF630EE41E4D
S2140024901C64146C1068F19BA297986714EE90EA7F
S2140024A01367170098E74E85EF00807E41047DAAEB
S2140024B0B7070080C19893C7F7FF63E5971A63E3F1
S2140024C0B41AEF00E07B9307701F63F3973E93D731
S2140024D094006383072C1147636CF73493D764002A
S2140024E01B8697039B1616001B8587038E0617EA26
S2140024F00300130A2A29D2968066C116638A8618B4
S2140025001C64FD45F19B3387974063CEE5000100D0
S2140025106354072C006C638D86161C64F19B33870E
S2140025209740E3D7E5FE03340A0217E803001308D2
S21400253068262A866316041783378A001B572640A8
S2140025408546B396E60063FED71A03340A010339BC
S2140025508400937AC9FF63E79A00B3879A407D4761
S214002560634EF72497FB0300938B4BA797EC03006F
S214002570938C4C2003B90B0003B70C00FD57330CAB
S214002580540126996304F73C8567FD073E99FD775D
S2140025903379F900CA854E85EF00807AFD572A8B7D
S2140025A0630EF532636A853303A78B00BB072701EA
S2140025B023A4FB00BE866301AC4203B70C00FD57A4
S2140025C06308F742B3078B41B59F23A4FB00137C37
S2140025D0FB00630B0C38330B8B418567410BC1073F
S2140025E0B3878741B30C2B01338997410B39092CEC
S2140025F0CA854E85EF00C074FD576300F544330569
S21400260065411B0709002A9983A78B0023386A01B6
S21400261013691900B99F23A4FB0023342B01630C14
S214002620443D7D46637B563D146413878AFE419B7A
S214002630858AD98E14E4A545B306E4008CE68CEAB8
S2140026406364E64003398B005A8403B70B03637454
S214002650F70023B8FB0203B78B036375F72823BC88
S214002660FB0249A4B14723A0F9000144E660228595
S2140026704664A6640669E279427AA27A027BE26B35
S214002680426CA26C25618280806F0926E39287E007
S21400269003340A0217E803001308C80FE30E04E920
S2140026A01C64FD46F19B3387974063CDE61C2334BC
S2140026B00A0323300A036359070E1307F01F6361EA
S2140026C0F7128D831B87170003358A001B17170028
S2140026D08B45EA669BD627408547B397D7008B166F
S2140026E0EA06C98FC11614EC0CE82334FA000B5422
S2140026F0EA6680ED1B5726408546B396E600E3E67D
S214002700D7E433F7F60011EF8606719A33F7F60032
S214002710112601EB13000000860633F7F60011269B
S21400272065DF7D459B0816009B9818008B181A07D6
S214002730C118C685328303B985016399250119AA94
S214002740635207120339890163862511833789008E
S214002750F19B33879740E355E5FE833689010336C0
S214002760090193E514002334B90014EE90EACA94E4
S21400277023349A0223309A029366170023BC04017E
S21400278023B8040194E40B57F9604E85EF004050DF
S21400279013040901E1BD010093060040130600047E
S2140027A01305F003A9B30100A29798674E8541046C
S2140027B01367170098E7EF00A04D4DBD13E7140010
S2140027C018E4A29423389A0093E717009CE44E85F9
S2140027D0EF00004C410459BD146C106875B9010037
S2140027E013D79700914663FFE60CD14663E3E61ADB
S2140027F09B05C7059B9515009B06B7058E050B47E1
S214002800BA60D295C1156386E51401001300000076
S2140028101467F19A63F5D700186BE39BE5FE0C6F1F
S21400282083378A000CEC18E880E900EFE1B5010078
S21400283051476377F70C13074005636AF71693D77B
S214002840C4001B86F7069B1616001B85E7068E0639
S21400285079B90100052393773300C105E39D07ECA2
S2140028606DA80100CA9798674A84833689010B468B
S214002870846A1367170098E714EE90EA4E85EF0017
S2140028802041EDB393E6140014E4A29423349A0294
S21400289023309A029366170023BC040123B8040170
S2140028A094E40B57F4604E85EF00803E41047DBBF8
S2140028B013D634009B0716009B97170001268E0739
S2140028C075BE010013D767009B0597039B951500FF
S2140028D09B0687038E0525B76309440F03340A0158
S2140028E0033984001379C9FFB307994063659900DB
S2140028F07D47E345F7EC4E85EF0080390144BDB3D4
S2140029001B86C7059B1616001B85B7058E06C5B623
S2140029108BC708797D36639F171793773600EDFBD4
S21400292003378A0093C7F6FFF98F2334FA0086062A
S214002930E3EDD7C0E38B06C033F7F60011E7860653
S21400294033F7F600112365DF1A86E9BB130909027F
S21400295091B103358A009BD626408547B397D700AA
S214002960C98F2334FA007DBD330C2B01330C804114
S2140029700B3C0C2CE2854E85EF00803CFD57014752
S214002980E304F5C8330565411B070C0033098501D0
S214002990A5B99306400563E6E60613D7C7009B0570
S2140029A0F7069B9515009B06E7068E0589BD13075F
S2140029B040156366F70693D7F4001B8687079B16B9
S2140029C016001B8577078E061DB683A78B00BB8671
S2140029D0270123A4DB00D5B60B370C2CE31F07BC5E
S2140029E003340A0156991369190023342401B1B936
S2140029F023B06C01E9BE5A8489B985472334FB00AD
S214002A00DDBD9306401563EDE60413D7F7009B057E
S214002A1087079B9515009B0677078E05CDB3130792
S214002A204055636DF70493D724011B86D7079B1682
S214002A3016001B85C7078E065DBC411C33898C01BA
S214002A40330969410147C9B6930504014E85EF1065
S214002A50203B03340A0183A78B0003398400F5B6B4
S214002A609306405563E3E60213D727019B05D70775
S214002A709B9515009B06C7078E0551B39306007FEE
S214002A801306F0071305E0079DB49305007F930631
S214002A90E007B5B383378A0059BD00000000000088
S214002AA000000000AA86133706010DE39377F500B1
S214002AB0414889CFB307F840D7F2270007800502C0
S214002AC0969533065640278006029696D7722600BD
S214002AD0078005029695330656402780060296968E
S214002AE075F6828000000000000000000000000074
S214002AF063F4A502B387C5006370F5029307F6FF7B
S214002B0055CAFD56130000000BC7F5800B57F5009D
S214002B10FD17E39BD7FE8280FD4763E1C7022A8745
S214002B201308F6FF51CE81470BC6F580BE860B56BE
S214002B30F7008507E31AD8FE82800100B3E6A500F9
S214002B409D8ABDEA130306FE137303FE13030302F6
S214002B50B3086500AE872A8703B807009387070285
S214002B6013070702233007FF03B887FE233407FF47
S214002B7003B807FF233807FF03B887FF233C07FF88
S214002B80E39CE8FC137886019A959377F601630A2E
S214002B9008029D480BC8D5600B58D760A10633883D
S214002BA0D740E3E908FFE117E19BA1071D8A3E979E
S214002BB0BE95BDB7828001001308F6FF2A87A5B729
S214002BC082803E86B1BF00000000000000000000CA
S214002BD03D432A876371C3029377F700C1E3BDE1E3
S214002BE0937606FF3D8ABA960CE30CE74107E36D41
S214002BF0D7FE11E28280B306C3408A069702000021
S214002C0096966780A6002307B700A306B70023069C
S214002C10B700A305B7002305B700A304B700230435
S214002C20B700A303B7002303B700A302B70023022D
S214002C30B700A301B7002301B700A300B700230025
S214002C40B700828093F5F50F93968500D58D939601
S214002C500501D58D93960502D58D59B79396270015
S214002C609702000096968682E78026FA9680C1171D
S214002C701D8F3E96E371C3F89DB70000000000006C
S214002C8017E50300130505336FF08FF613000000F9
S214002C9017E50300130505326FF08FF900000000FA
S214002CA0011122E826E406ECAA842E8419C13C49C8
S214002CB085C7A2852685EF10B0691DE118601C4403
S214002CC093061700FD371CC414E003450700E260B6
S214002CD04264A26405618280EFF08F99D9BF01003B
S214002CE07D55F5B713000000130000001300000028
S214002CF0011126E497D4030083B4443122E806EC9D
S214002D002A8499C0BC488DC7A2852685EF105064DA
S214002D1005E518601C4493061700FD371CC414E034
S214002D2003450700E2604264A264056182800100F8
S214002D302685EFF0EF93C9BF7D55EDB70000000084
S214002D40411122E02A842E8597E7030023A8072C4A
S214002D5006E4EF20E03DFD576306F500A26002643E
S214002D604101828097E7030083A7472BE5DBA2603B
S214002D701CC00264410182800000000000000000C8
S214002D80411122E02E848395250106E4EF1040755C
S214002D90634A05005C68A260AA975CE80264410189
S214002DA082800100835704017D777D17F98FA2602A
S214002DB02318F40002644101828013000000010021
S214002DC0014582801300000013000000130000007D
S214002DD083970501797122F026EC4AE84EE406F462
S214002DE013F707102E84AA843289B68905E77D7703
S214002DF07D17F98F831524012318F4000274A2703E
S214002E00CE864A86A26942692685E26445616F00DD
S214002E10302901008395250189460146EF10405C64
S214002E2083170401E9B71300000013000000010037
S214002E30411122E02E848395250106E4EF10405AC6
S214002E40FD57630DF500835704010567A260D98F0F
S214002E5048E82318F4000264410182808357040185
S214002E607D777D17F98FA2602318F4000264410174
S214002E708280010013000000130000001300000011
S214002E80839525016F00D02600000000000000009A
S214002E9093F5F50F93777500D1CD85C3834705006D
S214002EA0D9C76398F500DDA883470500C9C36381C9
S214002EB0B708050593777500E5FB93978500CD8FDA
S214002EC0139807011861B367F8009728000083B8C5
S214002ED06866139807023368F800B346E80093471D
S214002EE0F7FF13C6F6FF1723000003332365469744
S214002EF0C69629A80B478568B3460701B30717018E
S214002F00338616011347F7FF93C6F6FFF98FF18E47
S214002F10D58FB3F76700F9DF8347050089CB639544
S214002F20F50039A0638AB7068B471588E5FF01458B
S214002F308280010089CF8347050091E7B9A8010088
S214002F4083470500F5D7050593777500F5FB1C61EB
S214002F509728000083B8085E172300000333035E3B
S214002F6013C7F7FFC697F98FB3F7670081EF010025
S214002F700B478568B30717011347F7FFF98FB3F7B9
S214002F806700FDD783470500C5D701001300000082
S214002F908B471588F5FF82808280828082800000C1
S214002FA00000000000000000B367B5009D8BC9E379
S214002FB09726000083B6065998617D56B377D700EA
S214002FC0B697D98FD58F6391C7082A867D5801009A
S214002FD00B5786780BC78568B377D700B697D98F17
S214002FE0D58FE38707FF83C7050003C7150083C691
S214002FF025002300F6009DCBA300E60005CB83C783
S21400300035002301D6009DC203C74500A301F60084
S21400301091CF83C755002302E60009CB03C765009E
S214003020A302F60081C72303E6000DE382800100B9
S21400303081470100130000000BC7F5800B57F50011
S21400304085077DFB828001002A8671BFA3030600E8
S2140030508280000000000000000000000000000069
S2140030609307E00863EAB70017370000130787C71F
S2140030708B47B744BA978287B2872A8641112E8536
S2140030800B96D642BE8506E4EF00807FA2609727A7
S21400309000009387271E0B95A740410182801735B5
S2140030A00000130525BA828017350000130505B801
S2140030B08280173500001305E5B5828017350000BD
S2140030C0130545BC828017350000130525878280CE
S2140030D017250000130505798280173500001305B3
S2140030E0E5AF8280173500001305C5B0828017252E
S2140030F000001305A56A828017350000130505AA8F
S2140031008280173500001305658E82801735000013
S2140031101305C5B98280172500001305A5528280C5
S214003120172500001305054E82801725000013059D
S214003130E55F8280172500001305C56F828017257E
S21400314000001305A55D828017350000130585B7BE
S2140031508280172500001305E56182801735000080
S214003160130545808280173500001305A5A48280CC
S21400317017350000130505A18280173500001305DA
S214003180E59C8280173500001305C59A82801735A6
S21400319000001305259882801735000013058595D5
S2140031A08280173500001305E591828017350000F0
S2140031B01305C58E8280173500001305A59A8280F8
S2140031C017350000130585A9828017350000130502
S2140031D0658B8280173500001305C58882801735F9
S2140031E000001305A58682801735000013050584A8
S2140031F0828017350000130565828280173500002F
S214003200130545808280172500001305257D8280E2
S214003210172500001305057B82801725000013057F
S214003220E5788280172500001305C576828017355D
S21400323000001305A58882801725000013058574F5
S214003240828017250000130565738280172500000D
S214003250130545708280172500001305A56C828033
S214003260172500001305056A828017250000130540
S214003270E5678280172500001305456482801725C0
S21400328000001305A562828017250000130505615E
S2140032908280172500001305E55E82801725000052
S2140032A01305455D8280172500001305255A828088
S2140032B01725000013050557828017250000130503
S2140032C06555828017250000130545538280172513
S2140032D000001305A5508280172500001305054E33
S2140032E08280172500001305654782801725000099
S2140032F01305C545828017250000130525418280E9
S214003300172500001305853F82801725000013054A
S214003310653D8280172500001305C53B8280172572
S21400332000001305A539828017250000130505380F
S2140033308280172500001305E535828017250000DA
S2140033401305C5338280172500001305A53182803A
S214003350172500001305052E82801725000013058B
S214003360652C8280172500001305452882801725C6
S21400337000001305252682801725000013058523E7
S2140033808280172500001305E5218280172500009E
S2140033901305C51F8280172500001305251E828091
S2140033A0172500001305851B8280173500001305BE
S2140033B0E5928280172500001305451982800100DA
S2140033C0AA8517D50300033565C48146014649B969
S2140033D0AA8517D50300033565C38146014649B162
S2140033E00000000000000000937775002A87B1EF08
S2140033F09726000083B60615FD5501001300000051
S2140034000B468778B377D600B697D18FD58FE389EA
S214003410B7FE834787FFB306A740A9C7834797FF32
S21400342095CF8347A7FFB9C78347B7FFA1C3034616
S214003430C7FF8345D7FF8347E7FF21C2B1C13335B6
S214003440F000369579158280C5D68B471798937607
S2140034507700FDFB098F1305F7FF8280138596FF23
S21400346082800100138586FF828001001385B6FFE7
S214003470828001001385A6FF82801385C6FF8280A6
S2140034801385D6FF828000000000000000000000C8
S214003490411122E426E0AA832E88973800009388FC
S2140034A0F8A801001300000042830B4718988BC74A
S2140034B0E880A18BF5FB1305D002BA876304A70E3C
S2140034C01307B0026384E7087D5405808144D9C69B
S2140034D04147B6826382E60EB37F5402254E1B87B1
S2140034E007FD81480145654FB35E5402812F63692D
S2140034F0EE02010013000000BA8763DBD70263C741
S2140035000806FD5863E8AE00638EAE068B1755209E
S21400351085483E858B4718981B8707FDE37EEEFCA3
S2140035201B87F7FB6368EF049B8797FCE3C9D7FC10
S21400353063C00806B307A0400B95974201C6639B7D
S21400354008060CE222648264410182807D5483472F
S21400355008000580130823008144BDFA1307000302
S2140035606380E708A942A94685BF01008B471898E3
S214003570FD585DB71B83F7F9E36C6FFA9B8797FAE4
S214003580ADBF0100E3D4FFF88B47189871B7010070
S2140035909307200223A0F30022854DD69305F8FF5B
S2140035A0228545B77D54834708007E141308230000
S2140035B0854431BF2A84DDB713070003639AE7000A
S2140035C003470800130580051377F70D6304A7006B
S2140035D0C14219B783471800C1420908C146EDBD6C
S2140035E003470800930680051377F70DE304D7FE1C
S2140035F0A142A146D5B5130000001300000001004B
S21400360005476387E600130740026363D70049B5A2
S214003610411106E4EFE0CFE3A260D9471CC10145A3
S2140036204101828013000000130000001300000018
S2140036308547630FF6009307400263EBC7002A87AF
S21400364017D503000335859CB2862E86BA8589B5C4
S214003650411106E4EFE0CFDFA260D9471CC1014567
S21400366041018280130000001300000013000000D8
S2140036708547630FF6009307400263EBC7002A876F
S21400368017D5030003358598B2862E86BA8509B508
S214003690411106E4EFE0CFDBA260D9471CC101452B
S2140036A041018280000000000000000000000000D1
S2140036B0411122E4AA8F2E88973800009388188735
S2140036C042850B4718988BC7E880A18BF5FB9308BB
S2140036D0D002BA876306170F1307B0020144638F40
S2140036E0E70889CE41476383E60EFD5EB3F3DE024C
S2140036F0B682B3DEDE02812329A801001307000389
S214003700638CE70E973E000083BECE819543A942A8
S214003710A946254E1B8707FD81480145654F63690D
S214003720EE02010013000000BA8763DBD70263CD08
S2140037300804FD5863E8AE006304D5078B175520D0
S21400374085483E858B4718981B8707FDE37EEEFC71
S2140037501B87F7FB636EEF029B8797FCE3C9D7FCDA
S21400376063C60804B307A0400B95874201C663955D
S21400377008040CE2226441018280010083470800AD
S21400378013082500B9BF01008B471898FD586DBF78
S2140037901B83F7F9E3666FFC9B8797FA79B70100FE
S2140037A0E3DEF3F88B47189845B70100930720022D
S2140037B023A0FF007D555DDE9305F8FF5DBF010089
S2140037C08347080005441308250021BF130700039C
S2140037D06399E70403470800130580051377F70D80
S2140037E0631BA702FD5E83471800BD43090893DEEE
S2140037F04E00C142C14631BF03470800930680050C
S2140038001377F70DE300D7FEFD5E9D4393DE3E0083
S214003810A142A146FDBDFD5EB3DEDE02C142BD4350
S214003820CDBDFD5EBD4393DE4E00C142DDB5010059
S21400383041B5010013000000130000001300000053
S214003840AA8717C503000335657CB2862E86BE851B
S21400385085B50100130000001300000013000000EF
S214003860AA8717C503000335657AB2862E86BE85FD
S21400387081B500000000000000000000000000000D
S21400388001458280000000000000000000000000EB
S2140038900000000000000000000000000000000023
S2140038A0AE87411122E0B2852A8436863E8506E43C
S2140038B097D7030023A40776EF10900FFD576307F2
S2140038C0F500A260026441018280010097D70300E0
S2140038D083A7C774FDD7A2601CC002644101828022
S2140038E000000000000000000000000000000000D3
S2140038F0411122E02A842E8597D7030023A0077261
S21400390006E4EF10E06EFD576306F500A260026461
S2140039104101828097D7030083A74770E5DBA2604A
S2140039201CC002644101828000000000000000000C
S214003930011106EC22E826E44AE0C5C5AA842E84D6
S21400394019C13C49C5CB8327040B03170401858B9B
S214003950B5CB41CBA2852685EF0080103C682A892E
S21400396091C70C78268582976340050A8347040131
S2140039700BB777FC45E32C6C91C993074407638526
S214003980F5002685EF00C047233C04042C7C91C537
S2140039902685EF00E046233C0406EFE06FF483271D
S2140039A0040B23180400858BD1C74870EFE05FA294
S2140039B0EFE00FF4E2604264A2644A8502690561A2
S2140039C0828001001377072051F74870EFE05FA26E
S2140039D083170401C1F30329040B1379190063004C
S2140039E00904E26042640149A2644A8502690561ED
S2140039F082800100EFE0CFC78327040B0317040182
S214003A00858BA1FBC1B70100834704017D590BB725
S214003A1077FC35D30C6C2685EF00803EA9BF487036
S214003A20EFE01FA1E2604264A2644A850269056174
S214003A30828001004870EFE0BF9F85BF1300000042
S214003A40AA8517C503000335655CDDB500000000D8
S214003A500000000000000000000000000000000061
S214003A6083970501797122F04EE406F426EC4AE8C5
S214003A7093F687002E84AA89C5EE0567130707808C
S214003A809445D98F2398F5006352D010386441CB03
S214003A908BB7073C856683A40900FD8E23A009002A
S214003AA0F5EA0C78014685464E850297FD572A862C
S214003AB06308F510835704013864918B99C7144442
S214003AC03C6C158E99C33C581D8E0C7881464E85ED
S214003AD00297FD576312F50C03A70900831704012C
S214003AE0630E070EF5466305D700D946631ED70E4C
S214003AF0146C7D771307F77FF98F2318F4002324BF
S214003B00040014E02C6C23A0990091C99307440785
S214003B106385F5004E85EF00A02E233C0404014586
S214003B20A2700274E2644269A26945618280010063
S214003B3003B98501E30509FE84610BB7073C0D8BCD
S214003B4023B02501BB842441814711E39C515CC40A
S214003B5063479000E9B701002A99E35290FC3C6065
S214003B600C78A6864A864E858297899CE346A0FEF8
S214003B7083570401A270E26493E707042318F40055
S214003B8002744269A2697D5545618280B859E34F47
S214003B90E0EE71B7506815B7835704017D771307B9
S214003BA0F77F146CF98F8BA7073C05672318F40082
S214003BB02324040014E0F98FB1D748E8A1B7010028
S214003BC083A70900E38807EE75476385E700594732
S214003BD0E390E7FA23A09900014599B77D7713078C
S214003BE0F77F146CF98FD1B793E707042318F40016
S214003BF07D553DB7130000001300000013000000C1
S214003C00011122E826E406EC4AE0AA842E8419C1B3
S214003C103C49A9C383170401014995C70327040B30
S214003C20058B01E793F7072095CBA2852685EFF055
S214003C303FE38327040B2A89858B91E7835704018A
S214003C4093F7072095CBE2604264A2644A85026936
S214003C5005618280EFE0CFA175BF01004870EFE0FC
S214003C602FF9A2852685EFF0BFDF8327040B2A896C
S214003C70858BF1FBE1B701004870EFE06FFBE26077
S214003C804264A2644A8502690561828013000000CE
S214003C9035C9011126E497C4030083B4243722E80B
S214003CA006EC4AE02A8499C0BC48A9C383170401DD
S214003CB0014995C70327040B058B01E793F70720F7
S214003CC095CBA2852685EFF0BFD98327040B2A89DA
S214003CD0858B91E78357040193F7072085C3E2603D
S214003CE04264A2644A850269056182802685EFE007
S214003CF02F986DBF4870EFE0AFEFE1B74870EFE088
S214003D002FF3F1BF17250000033545829705000005
S214003D10938545EF6FE0CFCF000000000000000065
S214003D20797122F026EC4AE84EE42E8406F497D900
S214003D300300938929A52A89EFE09FF483B6090139
S214003D4005679307F7FD846633848740F1982694C9
S214003D5031807D143204634BE40081454A85EFE0F0
S214003D603FFE83B70901A697630EF5004A85EFE08C
S214003D703FF2A2700274E2644269A269014545619D
S214003D8082800100B30580404A85EFE07FFBFD5747
S214003D90630CF50217D703001307C7241C4383B62A
S214003DA00901818C93E414003B8487404A8584E6AD
S214003DB000C3EFE0FFEDA2700274E2644269A269FC
S214003DC0054545618280010081454A85EFE05FF741
S214003DD003B70901FD46B307E540E3D9F6F893E7D4
S214003DE017001CE797D7030083B7C7981D8D97D792
S214003DF0030023A9A71E9DBF1300000013000000A8
S214003E00F5C5011122E826E42E84AA8406ECEFE02C
S214003E103FE7833584FF130704FF17D50300130518
S214003E20659693F7E5FF3306F70014660338050139
S214003E30F19A6307C81414E685893308D600C9E1E9
S214003E40033304FF8335880097D80300938888944B
S214003E5033076740033807019A978589630E180F62
S214003E6003338701233C680023380301638A051661
S214003E7093E6170014E71CE29306F01F63E3F608C8
S214003E808D839B861700033885009B9616008B450E
S214003E90D5661BD627408547B397C7000B16D506B1
S214003EA0B3E70701411610EF0CEB1CE50B57D56680
S214003EB098ED4264E2602685A26405616FE05FDDEE
S214003EC08335880085898DE5B69797D80300938853
S214003ED0688C146A93E51700638E1611106E90EEC8
S214003EE014EA0CE78B57F76041BF0100828001009F
S214003EF093E61700233CD4FE1CE29306F01FE3F182
S214003F00F6F893D697001146636AD60A93D66700EA
S214003F109B8596039B9515001B8686038E058B4610
S214003F20B560AA95C1156381D50E01001300000087
S214003F309066719A63F5C700946AE39BD5FE8C6E13
S214003F400CEF14EB4264E26098E92685A26498EED2
S214003F5005616FE0FFD30100639505100C6E106AD3
S214003F60B69742640CEE90E993E61700E26014E719
S214003F702685A2648B57F76005616FE07FD101004C
S214003F808589B69789E9833504FF0D8F146F106B0A
S214003F90AE9714EE90EA13E6170097C6030083B6B2
S214003FA0E67D10E718E9E3E6D7F097D5030083B57A
S214003FB0E5022685EFF0DFD6EDBD010051466373BE
S214003FC0D60213064005636DD60493D6C7009B85BC
S214003FD0F6069B9515001B86E6068E0589B701003A
S214003FE0B697C5BD9B85C6059B9515001B86B60571
S214003FF08E0535B718F518F1233C1701233817013D
S2140040000CE78B57F76075B5033885001B562640BE
S21400401085473396C7003366060110E515B70100DD
S21400402013064015636CD60093D6F7009B8586076B
S2140040309B9515001B8676078E05D5B5130640554D
S214004040636CD60093D627019B85D6079B951500F3
S2140040501B86C6078E05E1B59305007F1306E007AD
S2140040607DBD93E6170014E71CE2A1B50000000032
S214004070000000000000000000000000000000003B
S2140040801C6A638F071403D705011D71A2E852F856
S21400409056F486ECA6E4CAE04EFC5AF05EEC62E803
S2140040A066E46AE0937787002E84AA8A328AADCBCC
S2140040B09C6DBDC79377270083340A00BDCF370BAE
S2140040C0008081490149134B0BC00100130000001A
S2140040D0B3372B01DA868B16F9404E868126568535
S2140040E0630C090C3C600C7882976353A00E8337F0
S2140040F00A01AA993309A9403385A7402338AA00A4
S21400410061F90145E6604664A6640669E279427A8A
S214004110A27A027BE26B426CA26C026D2561828001
S214004120A2855685EF00D0396313052A035704018C
S21400413083340A0093772700D9F393771700DDE3DB
S2140041400329C400370B0080934BEBFF014C8149D9
S214004150134BFBFF13000000CA8C638A0904937795
S21400416007200860638807124A8D63F92919CE8CE8
S2140041704E8D6A86E285EFE0BF9758441C604E89F4
S214004180BB0C9741EA97232694011CE0814903362D
S2140041900A014A9C3309264123382A01E30309F61B
S2140041A00329C40003570401CA8CE39A09FA0BCC0E
S2140041B034F9C10455B701008BC924F9C10409BFFD
S2140041C0A2855685EFF0DFA335C501001300000079
S2140041D08317040193E707042318F4007D551DB7E1
S2140041E0014582800149014B0145814C6301090666
S2140041F035C508601C6C33376901CA898B19EB40DA
S21400420014504E8C63F7A7005C44BB8BD70063C387
S2140042103B076345DC163C600C78668656858297BD
S214004220AA89E357A0FA9B0705003B0BFB40054510
S214004230E3080BF883370A01CE9C33093941B3896A
S214004240374123383A01E38E09EAE31309FA03B942
S214004250840083BC0400C104E30B09FE4A86A9451A
S2140042606685EF00E01C630B051405053B0B9541C6
S21400427049B70100E6855E86EFE09F871C60A28551
S2140042805685DE971CE0EFF0BF9739F1DE87DE89B2
S21400429069BF01001C6C63E9A7021C5063E6F902C3
S2140042A033B73B01CE868B16EB42BBC6F6023860B0
S2140042B00C7862865685BB86F6020297E35AA0F013
S2140042C02A89B3892941E1B5B3B729010B99F94287
S2140042D04A86E285EFE0DF815C441860BB862741B2
S2140042E04A9754C418E0F1FEA2855685EFF05F9118
S2140042F0E31005EEB389294159BD010093770748BD
S214004300E38907E61C500C6C137707401B991700CF
S214004310BB07F9000D8D9B0C05001BD9F7013B0967
S214004320F90093871C001B591940CE9705253B05BD
S2140043303501B337F9000B19F54239CFCA855685D2
S214004340EFE00F902A8D35CD0C6C6686EFE08FF58A
S2140043508357040193F7F7B793E707082318F40089
S21400436033059D01BB079941233CA40108E02320A7
S2140043702403CE8C5CC44E8DEDBB01006286E685C0
S214004380EFE00FF7544418609B070C00BB8686418D
S214004390629754C418E051BD4A865685EF0040190E
S2140043A02A8D5DFD0C6C5685EFF09FA583170401E2
S2140043B0314723A0EA0093F7F7F729BD1B0B190036
S2140043C00DBD31478317040123A0EA0021B57D55B2
S2140043D015BB000000000000000000000000000008
S2140043E0AE87411122E0B2852A8436863E8506E4F1
S2140043F097D7030023A407C2EF00904BFD5763072F
S214004400F500A260026441018280010097D7030094
S21400441083A7C7C0FDD7A2601CC00264410182808A
S2140044200000000000000000000000000000000087
S2140044309377750093F6F50FD9CF9307F6FF21C64D
S214004440034705006302D7047D5601A8FD17638C59
S214004450C702034705006309D702050513777500F1
S21400446075F71D476364F70299CF03470500630D90
S214004470D700AA9731A00100034705006306D700BE
S2140044800505E39BA7FE01458280010093F5F50F25
S21400449013978500D98D139705014D8F9718000047
S2140044A083B848091718000003384809931507020F
S2140044B0D98D1D431300000018612D8F3306170198
S2140044C01347F7FF718F3377070145F3E11721058F
S2140044D0E364F3FE51BFB28769B700000000000036
S2140044E0AE87411122E0B2852A8436863E8506E4F0
S2140044F097D7030023A407B2EF00903FFD5763074A
S214004500F500A260026441018280010097D7030093
S21400451083A7C7B0FDD7A2601CC002644101828099
S2140045200000000000000000000000000000000086
S2140045305D714AF886E4A2E026FC4EF452F056EC92
S2140045405AE85EE462E03289638C0514AE89AA8A72
S214004550EFE00FF383B789FF130479011307E00236
S214004560138A09FF93F4C7FF637E870A3707008024
S21400457041981347F7FF636B870A6369240B63D17F
S214004580840E17CC0300130CEC1F03360C01B30685
S2140045909A0098666306D6141376E7FF369610667A
S2140045A0058A6DE6719B3386E4006353860A858B25
S2140045B08DE383BB09FFB30B7A4183B78B00F19B76
S2140045C03E97330B9700635B8B28338BF40063575F
S2140045D08B20CA855685EFD0BFE62A891DCD83B7C6
S2140045E089FF130705FFF99BD2976383E71E13869F
S2140045F084FF9307800463EFC72413077002636584
S214004600C718AA874E87146394E3146794E7186B59
S21400461098EBCE855685EFF0AFFE5685EFE04FE778
S21400462011A8010013040002E37B24F5B14723A080
S214004630FA000149A6600664E274A279027AE26A88
S214004640426BA26B026C4A854279616182800100EE
S2140046509C6E986AB2841CEF98EB01001300000071
S21400466083378A00B38684407D46858B33079A005D
S2140046706366D604C58F2334FA001C6793E71700D9
S2140046801CE75685EFE0CFE04E896DB7858BB1F31A
S21400469083BB09FFB30B7A4183B78B00F19B35B719
S2140046A00664A660E2744279A279027AE26A426BF4
S2140046B0A26B026CB28561616FD09FD8C18F233424
S2140046C0FA00B3058A0093E6160094E51C67C10558
S2140046D0568593E717001CE7EFF08FF25DB70100F1
S2140046E0719BB386E4001306040263DFC60A858B5B
S2140046F0E39107EE83BB09FFB30B7A4183B78B00C8
S214004700F19B3E97330B9700E341CBEC5E8983B772
S2140047108B010B47896A138684FF930680041CEF7F
S21400472098EB63EEC61E13077002CA876371C70252
S21400473003B709009307700323B8EB0003B789009B
S21400474023BCEB0063E2C71EC10993870B0203B7C5
S214004750090098E303B7890098E703B7090198EBC7
S21400476033878B00B3078B402338EC0093E71700A2
S2140047701CE783B78B005685858B5D8C23B48B0036
S214004780EFE00FD145BD010083B6090013077003A3
S21400479014E183B6890014E56366C714138709011C
S2140047A0930705018DB50100229AB387864023380A
S2140047B04C0193E717002334FA0083B789FF568528
S2140047C04E89858B5D8C23BC89FEEFE06FCC9DB552
S2140047D0833785FFF19BBE9461B501005E8983B780
S2140047E08B010B47896A138684FF930680041CEFAF
S2140047F098EB63E1C60E13077002CA87637EC70292
S21400480003B709009307700323B8EB0003B78900CA
S21400481023BCEB0063F6C70E83B7090123B0FB0287
S21400482083B7890123B4FB026308D608938909027B
S21400483093870B031300000003B70900DA845E8A2F
S21400484098E303B7890098E703B70901CA8998EB8C
S21400485001BD0100CE85EFE0AFA965BB9C6E986AEE
S2140048605E89138684FF1CEF98EB0B47896A83B733
S2140048708B01930680041CEF98EB63EDC6041307C8
S2140048807002CA87E37AC7FA03B709009307700372
S21400489023B8EB0003B7890023BCEB0063F2C7061E
S2140048A003B709019307800423B0EB0203B789011D
S2140048B023B4EB02E31CF6F603B7090293870B0456
S2140048C09389090323B8EB0203B789FF23BCEB02E5
S2140048D0A5B70100CE854A85EFE08FA1CA89DA84A4
S2140048E05E8ABDBB03B7090118E903B7890118ED55
S2140048F0630CF600138709029307050229B301002B
S214004900C10993870B020DBF83B6090213870903FB
S2140049109307050314F183B6890214F5EDB1CE852D
S2140049204A85EFE0EF9C2DBD83B7090123B0FB025B
S21400493083B7890123B4FB026307D6009389090273
S21400494093870B0329B503B7090293870B04938952
S214004950090323B8EB0203B789FF23BCEB02C5BBF0
S2140049600000000000000000000000000000000042
S214004970797122F0806126EC4AE806F44EE452E0B3
S214004980AE842A8915C8833904006383090203BAF2
S2140049900900630B0A0083350A0099C1EFF05FFD3A
S2140049A0D2854A85EFF0CFC5CE854A85EFF04FC554
S2140049B0A2854A85EFF0CFC40274A270A269026A8B
S2140049C0A6854A85E264426945616FF06FC30100BF
S2140049D097B7030083B787636388A7142C7D1D7180
S2140049E0A6E486ECA2E8CAE04EFC52F856F45AF06A
S2140049F05EEC62E866E4AA848DC50149930900204E
S214004A000BC4256109C80100A28500602685EFF069
S214004A102FBF7DF8AC7C2109E31439FF2685EFF023
S214004A202FBEAC7081C52685EFF08FBD03B4841F02
S214004A3001CC1389042063092401A2850060268521
S214004A40EFF00FBCE31B89FECC6481C52685EFF032
S214004A502FBBBC48CDCFBC6C2685829703B40452CE
S214004A605DC4033904006304090883390900638CB4
S214004A70090603BA090063040A06833A0A00638C2F
S214004A800A0403BB0A0063040B04833B0B00638C1D
S214004A900B0203BC0B0063040C02833C0C00638C0B
S214004AA00C0083B50C0081C52685EFF07FECE6850B
S214004AB02685EFF0EFB4E2852685EFF06FB4DE854D
S214004AC02685EFF0EFB3DA852685EFF06FB3D6854F
S214004AD02685EFF0EFB2D2852685EFF06FB2CE8551
S214004AE02685EFF0EFB1CA852685EFF06FB1A28577
S214004AF04664E6600669E279427AA27A027BE26B55
S214004B00426CA26C2685A66425616FF06FAFE660E6
S214004B104664A6640669E279427AA27A027BE26B70
S214004B20426CA26C2561828082800000000000003A
S214004B30835705012547A58B6384E70001458280DE
S214004B406FF00F9513000000130000001300000024
S214004B50797122F026EC06F44AE84EE4AA842E8404
S214004B6019C13C49E1C38317040189660BB7073CAA
S214004B703376D70019EE0327040BD58FF976FD168A
S214004B808BA7073C758F2328E40A2318F4000BB77D
S214004B90073C2324040093760702639C060E937654
S214004BA04700A9EA9376070163800610218B4DEB38
S214004BB093E747002318F4001C6CE9C303190401AB
S214004BC0937739008B39093CB5E3106C1C7C145084
S214004BD00C7810E0268582979B0705001CC40145CB
S214004BE0635BF00AA2700274E2644269A2694561DE
S214004BF0828001002C6CE9D1930744076385F50099
S214004C002685EFF0EF9F3C58233C04041CC4CDD708
S214004C103C74A270E2641CE002744269A269014519
S214004C2045618280EFD0CFA43DBF0100171500007C
S214004C300335C58F85472318F40097050000938534
S214004C4065EFEFD0EFD393F9990023182401A54719
S214004C50E39DF9F6A2852685EFE09FE0BDB701004B
S214004C60A2852685EFE0DFF90DE5831704012326EC
S214004C70040023240402DD9B25BF0100A2852685AF
S214004C80EF00001525BF136707042324040023182C
S214004C90E4007D5581BF03170401F5F7136707028B
S214004CA02318E4007D553DBF254798C093E70704C9
S214004CB02318F4007D553DB70000000000000000FA
S214004CC097B7030083B78734011122E826E406EC81
S214004CD0AA842E8499C3B84B21CF03170401937678
S214004CE087008B37073CB9CE146CB5CA13F617008D
S214004CF011CE10502326040001453B06C04010D4B8
S214004D0091CEE2604264A2640561828013F62700B9
S214004D10814511E20C504CC40145E5F693F70708AF
S214004D20EDD3136707042318E4007D55D9BF0100AF
S214004D303E85EFD0EF9303170401937687008B37F9
S214004D40073CDDF293F60701A5C2918B95EB146C38
S214004D50136787002318E4008B37073CC1FA13F665
S214004D60072893050020E303B6F8A2852685EF0002
S214004D70200603170401146C8B37073C85BF01001F
S214004D802C6C81CD930744076387F5002685EFF0EA
S214004D902F8703170401233C0404146C1377B7FD14
S214004DA02324040014E06DB7A5479CC013670704CE
S214004DB02318E4007D55B1B7000000000000000095
S214004DC000000000000000000000000000000000DE
S214004DD083D7050193F6270081CA938775079CE160
S214004DE09CED85479CD18280357122E92E8483957F
S214004DF0250126E506ED4AE1CEFCD2F8AA8463C971
S214004E0005063000EF00C016634205063249BD674E
S214004E10930900403379F90089673309F9408567BB
S214004E2013391900138A0780CE852685EFD04FE107
S214004E308317040121CD17D7FFFF1307A7F5B8EC9A
S214004E4093E707082318F40008E008EC232034034F
S214004E5063120906B3E747012318F400EA604A64C0
S214004E60AA640A69E679467A0D618280835704014E
S214004E7093F7070801499DCB93090004CE85268544
S214004E80EFD00FDC83170401014A55F513F707200E
S214004E9071F7F19B93E72700130774072318F400B4
S214004EA0854718E018EC1CD055BF01009309004058
S214004EB0014A9DBF831524012685EF00600F09E592
S214004EC08317040141BF010083570401F19B93E758
S214004ED017008BA7073CBDBF13000000130000009F
S214004EE0757122E12E8483952501A6FCCAF806E595
S214004EF0B284368963CC05023000EF006007634752
S214004F000502B2473D67AA60F98F0967998F0A6460
S214004F1093B717002320F900930700409CE005652F
S214004F20E67446791305058049618280831704017B
S214004F302320090093F7070881CFAA600A64930725
S214004F4000049CE04679E6740145496182800100D0
S214004F50AA600A64930700409CE04679E67401451F
S214004F604961828000000000000000000000000090
S214004F70AE87411122E0B2852A843E8506E497C7B3
S214004F80030023AD0708EF00A00AFD576306F500EF
S214004F90A26002644101828097C7030083A70708C6
S214004FA0E5DBA2601CC002644101828000000000B4
S214004FB0411122E02A842E8597C7030023A0070606
S214004FC006E4EF00E00BFD576306F500A2600264FE
S214004FD04101828097C7030083A74704E5DBA260F0
S214004FE01CC0026441018280000000000000000036
S214004FF08145014681460147814793089003730027
S21400500000006344050001258280411122E02A84C5
S21400501006E43B048040EFC0BFC300C1A260026448
S2140050207D55410182800000000000000000000065
S214005030357126E506EDAE8422E901468A8581466D
S2140050400147814793080005730000002A84634ED9
S21400505005001B04050026858A85EF006019EA60B6
S21400506022854A64AA640D6182803B048040EFC0BA
S2140050703FBE00C17D54C5B7000000000000000020
S21400508019712C0086FCEFF0BFFAFD576308F50097
S2140050903245E6700B35D53409618280E6700145ED
S2140050A0096182800000000000000000000000008F
S2140050B0411106E422E08146014781479308E00358
S2140050C0730000002A8463470500A26022850264FC
S2140050D0410182803B048040EFC09FB700C17D54F1
S2140050E0EDB7000000000000000000000000000017
S2140050F0411106E422E08146014781479308F00308
S214005100730000002A8463470500A26022850264BB
S214005110410182803B048040EFC09FB300C17D54B4
S214005120EDB70000000000000000000000000000D6
S21400513017C30300130303EF83370300411106E48C
S2140051402A8885E301458145014681460147930843
S214005150600D73000000FD57630CF502AA8723302C
S214005160A3003305F8008145014681460147814783
S2140051709308600D73000000833703003E986319A0
S2140051800501A2602330A3003E8541018280010014
S214005190EFC01FACA260B1471CC17D5541018280A3
S2140051A000000000000000000000000000000000FA
S2140051B0411106E422E08146014781479308000436
S2140051C0730000002A8463470500A26022850264FB
S2140051D0410182803B048040EFC09FA700C17D5400
S2140051E0EDB7000000000000000000000000000016
S2140051F08BC355F88BCFE5E583AE850103AEC501BD
S21400520003B3050283B8050303B80504905DB465CF
S214005210B86DBC7523107500231155002322F501C7
S2140052202314E5012315D5012316C50123176500B0
S214005230233815012338050530E514ED18F51CFD57
S206005240828065
S2140052480A48656C6C6F20467269656E64210000BA
S21400525857656C636F6D6520746F20542D48454103
S2140052684420576F726C64210000000000000000A4
S2140052780A61206973202564210A000000000000E6
S21400528862206973202564210A00000000000000DF
S21400529863206973202564210A00000000000000CE
S2140052A821212120504153532021212100000000B4
S2140052B8212121204641494C2021212100000000BF
S2140052C861667465722041534D20632069732063BC
S2140052D868616E67656420746F202564210A000083
S2140052E8286E756C6C290000360A0000B4090000A8
S2140052F8B4090000B4090000B4090000B4090000AD
S214005308B4090000B4090000B4090000B40900009C
S214005318B4090000B4090000B4090000B40900008C
S214005328B4090000B4090000B4090000B40900007C
S214005338B4090000B4090000B4090000B40900006C
S214005348B4090000B4090000B4090000B40900005C
S214005358B4090000B4090000B4090000B40900004C
S214005368B4090000B4090000180D0000B4090000D4
S214005378B4090000100D0000B4090000F40C000089
S214005388B4090000B4090000B4090000B40900001C
S214005398080D0000320D0000B4090000A20F00003E
S2140053A8380D0000B40900005A0A00005A0A000026
S2140053B85A0A00005A0A00005A0A00005A0A000050
S2140053C85A0A00005A0A00005A0A00005A0A000040
S2140053D8B4090000B4090000B4090000B4090000CC
S2140053E8B4090000B4090000B4090000B4090000BC
S2140053F8B4090000B4090000B4090000B4090000AC
S214005408B4090000B4090000B4090000B40900009B
S214005418B4090000B4090000960A0000B4090000A8
S214005428B4090000B4090000B4090000B40900007B
S214005438B4090000B4090000B4090000B40900006B
S214005448B4090000B4090000BA0F0000B40900004F
S214005458B4090000B4090000B4090000B40900004B
S214005468B4090000B4090000B4090000B40900003B
S214005478CA0F0000EC0C0000A80A0000B4090000DF
S214005488620C0000620C0000200D0000A80A000054
S214005498B4090000B40900002C0D00004C0D0000F3
S2140054A8B4090000720D0000900D0000960A000076
S2140054B8B4090000DE0D0000B4090000DC0F00008F
S2140054C8B4090000B4090000D80F0000B4090000B1
S2140054D80C0D0000000000002020202020202020A6
S2140054E8202020202020202030303030303030302F
S2140054F830303030303030300000000000002440BB
S2140055089A9999999999B93FFF799F501344D33F2F
S214005518000000205FA00242CDCCCCCCCCCCEC3F27
S2140055281000040000000000FFFEFEFEFEFEFEFE69
S21400553880808080808080807F7F7F7F7F7F7F7F66
S2140055484E6F74206F776E657200000000000000D2
S2140055584E6F20737563682066696C65206F7220CD
S2140055686469726563746F72790000000000000059
S2140055784E6F20737563682070726F63657373006F
S214005588496E746572727570746564207379737485
S214005598656D2063616C6C00492F4F206572726FD1
S2140055A872000000000000004E6F207375636820CC
S2140055B8646576696365206F7220616464726573DA
S2140055C87300000000000000417267206C69737465
S2140055D820746F6F206C6F6E67000000000000007C
S2140055E84578656320666F726D6174206572726FA8
S2140055F87200000000000000536F636B6574206142
S2140056086C726561647920636F6E6E656374656439
S21400561800000000000000004261642066696C65B6
S214005628206E756D626572004E6F206368696C64E3
S21400563872656E000000000044657374696E6174DC
S214005648696F6E2061646472657373207265717524
S21400565869726564000000004E6F206D6F726520E9
S21400566870726F6365737365730000000000000056
S2140056784E6F7420656E6F7567682073706163651A
S21400568800000000000000005065726D69737369C1
S2140056986F6E2064656E6965640000000000000097
S2140056A842616420616464726573730000000000E0
S2140056B8446576696365206F72207265736F7572CC
S2140056C8636520627573790046696C65206578693C
S2140056D8737473000000000043726F73732D646563
S2140056E876696365206C696E6B0000000000000038
S2140056F84E6F20737563682064657669636500007D
S2140057084E6F742061206469726563746F727900E5
S214005718486F737420697320646F776E000000000A
S214005728436F6E6E656374696F6E20616C72656137
S214005738647920696E2070726F67726573730000F3
S21400574849732061206469726563746F727900001A
S214005758496E76616C696420617267756D656E74F2
S21400576800000000000000004E6574776F726B2022
S214005778696E74657266616365206973206E6F74FE
S21400578820636F6E666967757265640000000000C6
S214005798436F6E6E656374696F6E2061626F7274B4
S2140057A86564206279206E6574776F726B000000FE
S2140057B8546F6F206D616E79206F70656E20666914
S2140057C86C657320696E2073797374656D000000CC
S2140057D846696C652064657363726970746F7220BD
S2140057E876616C756520746F6F206C6172676500F2
S2140057F84E6F7420612063686172616374657220FD
S2140058086465766963650000546578742066696C1B
S214005818652062757379000046696C6520746F6F41
S214005828206C617267650000486F73742069732086
S214005838756E726561636861626C650000000000E1
S2140058484E6F207370616365206C656674206F6E9A
S21400585820646576696365004E6F74207375707092
S2140058686F72746564000000496C6C6567616C2033
S2140058787365656B00000000526561642D6F6E6C81
S214005888792066696C652073797374656D0000000D
S214005898546F6F206D616E79206C696E6B730000B3
S2140058A842726F6B656E20706970650000000000BC
S2140058B84D617468656D617469637320617267759C
S2140058C86D656E74206F7574206F6620646F6D61E9
S2140058D8696E206F662066756E6374696F6E000069
S2140058E8526573756C7420746F6F206C617267658F
S2140058F800000000000000004E6F206D65737361A5
S2140059086765206F662064657369726564207479BC
S21400591870650000000000004964656E7469666979
S21400592865722072656D6F76656400000000000081
S214005938496C6C6567616C20627974652073657163
S21400594875656E6365000000446561646C6F636B23
S21400595800000000000000004E6574776F726B2030
S214005968697320756E726561636861626C650000B4
S2140059784E6F206C6F636B004E6F742061207374DB
S2140059887265616D0000000053747265616D206970
S2140059986F63746C2074696D656F75740000000021
S2140059A84E6F2073747265616D207265736F7572C1
S2140059B863657300000000005669727475616C2098
S2140059C86369726375697420697320676F6E650012
S2140059D850726F746F636F6C206572726F7200001E
S2140059E8556E6B6E6F776E2070726F746F636F6C28
S2140059F800000000000000004D756C7469686F7048
S214005A0820617474656D70746564000000000000A1
S214005A18426164206D65737361676500000000006D
S214005A2846756E6374696F6E206E6F7420696D704C
S214005A386C656D656E74656400000000000000000B
S214005A484469726563746F7279206E6F7420656D31
S214005A58707479000000000046696C65206F72203B
S214005A6870617468206E616D6520746F6F206C6F4E
S214005A786E67000000000000546F6F206D616E793D
S214005A882073796D626F6C6963206C696E6B730046
S214005A984E6F206275666665722073706163652056
S214005AA8617661696C61626C650000000000000048
S214005AB84E6F20646174610041646472657373207C
S214005AC866616D696C79206E6F7420737570706F7F
S214005AD8727465642062792070726F746F636F6C7D
S214005AE82066616D696C790050726F746F636F6CB5
S214005AF82077726F6E67207479706520666F7220E3
S214005B08736F636B65740000536F636B6574206F07
S214005B187065726174696F6E206F6E206E6F6E2D81
S214005B28736F636B6574000050726F746F636F6C8D
S214005B38206E6F7420617661696C61626C65000026
S214005B48436F6E6E656374696F6E207265667573F3
S214005B586564000000000000436F6E6E656374693C
S214005B686F6E207265736574206279207065657241
S214005B780000000000000000416464726573732032
S214005B88616C726561647920696E207573650000C2
S214005B9841646472657373206E6F74206176616900
S214005BA86C61626C65000000536F6674776172659D
S214005BB82063617573656420636F6E6E65637469D0
S214005BC86F6E2061626F72740000000000000000B3
S214005BD8536F636B6574206973206E6F7420636FF0
S214005BE86E6E656374656400536F636B65742069D5
S214005BF87320616C726561647920636F6E6E65638D
S214005C0874656400000000004F7065726174696F07
S214005C186E2063616E63656C6564000000000000BA
S214005C285374617465206E6F74207265636F766551
S214005C387261626C6500000050726576696F7573F4
S214005C48206F776E65722064696564000000000046
S214005C584F7065726174696F6E206E6F742073750D
S214005C6870706F72746564206F6E20736F636B65F7
S214005C78740000000000000056616C756520746FA3
S214005C886F206C6172676520666F7220646566694E
S214005C986E65642064617461207479706500000024
S214005CA84D65737361676520746F6F206C6F6E67E0
S214005CB80000000000000000436F6E6E65637469A4
S214005CC86F6E2074696D6564206F7574000000003F
S214005CD85375636365737300CAD6FFFFD4D6FFFF98
S214005CE8C0D6FFFFB6D6FFFFACD6FFFFA2D6FFFF93
S214005CF898D6FFFF8ED6FFFF84D6FFFF7AD6FFFF23
S214005D0870D6FFFF66D6FFFF5CD6FFFF52D6FFFFB2
S214005D1848D6FFFF98D3FFFF3ED6FFFF34D6FFFFD7
S214005D282AD6FFFF20D6FFFF16D6FFFF0CD6FFFFAA
